:100000000C942A000C9447000C9447000C94470071
:100010000C9447000C9447000C9447000C94470044
:100020000C9447000C9447000C9447000C94470034
:100030000C9447000C9491130C9447000C944700C7
:100040000C9447000C9447000C9447000C94470014
:100050000C94470011241FBECFE5D8E0DEBFCDBF12
:1000600011E0A0E6B0E0E2EFF8E302C005900D92E7
:10007000A235B107D9F712E0A2E5B1E001C01D92A7
:10008000A234B107E1F70E94D70C0C94771C0C94B2
:100090000000EF92FF920F931F937B018C0120E0F1
:1000A00030E040E05FE40E94490388238CF0C801FF
:1000B000B70120E030E040E05FE40E94C1010E940F
:1000C000A9039B01AC01205030404040504806C07D
:1000D000C801B7010E94A9039B01AC01B901CA0183
:1000E0001F910F91FF90EF900895A0E0B0E0EBE733
:1000F000F0E00C942619DC012B01FA019C9192305E
:1001000008F439C1EB018881823008F433C194309E
:1001100069F4843009F02FC111969C91119789815F
:10012000981709F428C1AAE4B1E025C1843009F484
:1001300021C18230A9F4923009F01DC19A01AD01AC
:1001400088E0EA010990AE01E90109929E0181501F
:10015000C1F7E201898111969C918923818308C1AD
:10016000923009F407C112962D903C901397EB0141
:100170008A819B811496AD90BD90CD90DC901797AD
:10018000EC80FD800E811F819101281B390BB90184
:1001900037FF04C066277727621B730B6032710537
:1001A0000CF061C0121613066CF537014801062EDB
:1001B00004C096948794779467940A94D2F721E0C8
:1001C00030E040E050E004C0220F331F441F551FB1
:1001D0006A95D2F721503040404050402E213F21B7
:1001E00040235123211531054105510521F021E01E
:1001F00030E040E050E079018A01E628F72808293C
:1002000019293CC0232BD1F1260E371E350146019A
:10021000062E04C096948794779467940A94D2F734
:1002200021E030E040E050E004C0220F331F441FC3
:10023000551F6A95D2F721503040404050402A2146
:100240003B214C215D21211531054105510521F04E
:1002500021E030E040E050E059016A01A628B728CB
:10026000C828D9280BC0821593052CF01C01AA249C
:10027000BB24650103C0EE24FF24870111969C91E5
:10028000D20111968C91981709F445C0992339F041
:10029000A80197012A193B094C095D0906C0A6016E
:1002A00095012E193F09400B510B57FD08C01182D3
:1002B0003382228224833583468357831DC081E0A5
:1002C00081833382228288279927DC01821B930B4A
:1002D000A40BB50B84839583A683B7830DC0220F2F
:1002E000331F441F551F24833583468357838281E0
:1002F000938101979383828324813581468157813D
:10030000DA01C9010197A109B1098F5F9F4FAF4F72
:10031000BF4328F30BC0918333822282EA0CFB1C7B
:100320000C1D1D1DE482F5820683178383E0808304
:10033000248135814681578157FF1AC0C901AA27F8
:1003400097FDA095BA2F81709070A070B0705695EF
:10035000479537952795822B932BA42BB52B848318
:100360009583A683B7838281938101969383828349
:10037000DF0101C0D201CD01CDB7DEB7E2E10C94BF
:100380004219A0E2B0E0E7ECF1E00C943219698385
:100390007A838B839C832D833E834F835887E9E048
:1003A000EE2EF12CEC0EFD1ECE010196B7010E943F
:1003B000D2048E010F5E1F4FCE010596B8010E9438
:1003C000D2048A8991E089278A8BC701B801AE01DE
:1003D000475E5F4F0E9475000E94FD03A096E6E015
:1003E0000C944E19A0E2B0E0E8EFF1E00C94321961
:1003F00069837A838B839C832D833E834F835887C5
:10040000F9E0EF2EF12CEC0EFD1ECE010196B701A6
:100410000E94D2048E010F5E1F4FCE010596B801D7
:100420000E94D204C701B801AE01475E5F4F0E942F
:1004300075000E94FD03A096E6E00C944E19A0E220
:10044000B0E0E5E2F2E00C94261969837A838B83AD
:100450009C832D833E834F835887CE010196BE0136
:10046000675F7F4F0E94D204CE010596BE016F5E8A
:100470007F4F0E94D2049985923088F0898982301A
:10048000C8F0943019F4823051F404C0843029F457
:10049000923081F48AE491E0C6C0923049F420E0C1
:1004A0009A858A89981321E02A87CE010996BBC0D4
:1004B000823049F420E09A858A89981321E02A8BBA
:1004C000CE014196B0C02D843E844F8458886D88FB
:1004D0007E888F88988CEE24FF248701AA24BB2471
:1004E000650140E050E060E070E0E0E0F0E0C10174
:1004F00081709070892BE9F0E60CF71C081D191D1E
:100500009A01AB012A0D3B1D4C1D5D1D80E090E062
:10051000A0E0B0E0E614F7040805190520F481E036
:1005200090E0A0E0B0E0BA01A901480F591F6A1F8E
:100530007B1FAA0CBB1CCC1CDD1C97FE08C081E0F5
:1005400090E0A0E0B0E0A82AB92ACA2ADB2A3196B6
:10055000E032F10549F0660C771C881C991C569412
:10056000479437942794C3CFFA85EA892B893C892D
:100570008B859C85280F391F2E5F3F4F17C0CA01FE
:1005800081709070892B61F016950795F794E79428
:1005900080E090E0A0E0B0E8E82AF92A0A2B1B2BC3
:1005A00076956795579547952F5F3F4F77FDE7CF36
:1005B0000CC0440F551F661F771F17FD4160EE0CDE
:1005C000FF1C001F111F21503040403090E05907A0
:1005D00090E0690790E4790760F32B8F3C8FDB0193
:1005E000CA018F779070A070B07080349105A1051A
:1005F000B10561F447FD0AC0E114F10401051105DC
:1006000029F0405C5F4F6F4F7F4F40781A8EFE1786
:1006100011F081E08A8F4D8F5E8F6F8F78A383E01A
:10062000898FCE0149960E94FD03A096E2E10C94C9
:100630004219A8E1B0E0EFE1F3E00C9432196983CC
:100640007A838B839C832D833E834F83588789E0F5
:10065000E82EF12CEC0EFD1ECE010196B7010E9492
:10066000D2048E010F5E1F4FCE010596B8010E9485
:10067000D2048985823040F08989823028F0C70110
:10068000B8010E944A0501C08FEF6896E6E00C941D
:100690004E19A8E1B0E0EFE4F3E00C94321969835D
:1006A0007A838B839C832D833E834F83588789E095
:1006B000E82EF12CEC0EFD1ECE010196B7010E9432
:1006C000D2048E010F5E1F4FCE010596B8010E9425
:1006D000D2048985823040F08989823028F0C701B0
:1006E000B8010E944A0501C08FEF6896E6E00C94BD
:1006F0004E19A8E1B0E0EFE7F3E00C9432196983FA
:100700007A838B839C832D833E834F83588789E034
:10071000E82EF12CEC0EFD1ECE010196B7010E94D1
:10072000D2048E010F5E1F4FCE010596B8010E94C4
:10073000D2048985823040F08989823028F0C7014F
:10074000B8010E944A0501C081E06896E6E00C9479
:100750004E19ACE0B0E0EFEAF3E00C94361969838F
:100760007A838B839C83CE010196BE016B5F7F4FA2
:100770000E94D2048D81823061F1823050F1843048
:1007800021F48E81882351F12EC02F81388537FDC9
:1007900020C06E812F3131051CF06623F9F023C093
:1007A0008EE190E0821B930B29853A854B855C8511
:1007B00004C056954795379527958A95D2F76623B5
:1007C000B1F050954095309521953F4F4F4F5F4F79
:1007D0000EC020E030E040E050E009C02FEF3FEFD6
:1007E0004FEF5FE704C020E030E040E050E8B9019F
:1007F000CA012C96E2E00C945219DF92EF92FF921C
:100800000F931F93FC01E480F58006811781D1804E
:100810008081823048F480E090E0A0E1B0E0E82AF6
:10082000F92A0A2B1B2BA5C0843009F49FC0823003
:1008300021F4EE24FF24870105C0E114F104010531
:10084000110519F4E0E0F0E096C0628173819FEF3A
:10085000623879070CF05BC022E83FEF261B370BAC
:100860002A3131052CF020E030E040E050E02AC091
:10087000B801A701022E04C0769567955795479554
:100880000A94D2F781E090E0A0E0B0E004C0880FC5
:10089000991FAA1FBB1F2A95D2F70197A109B10979
:1008A0008E219F21A023B1230097A105B10521F03E
:1008B00081E090E0A0E0B0E09A01AB01282B392B59
:1008C0004A2B5B2BDA01C9018F779070A070B07052
:1008D00080349105A105B10539F427FF09C0205CDA
:1008E0003F4F4F4F5F4F04C0215C3F4F4F4F5F4F13
:1008F000E0E0F0E02030A0E03A07A0E04A07A0E402
:100900005A0710F0E1E0F0E079018A0127C0603871
:10091000710564F5FB01E158FF4FD801C7018F77DE
:100920009070A070B07080349105A105B10539F4C4
:10093000E7FE0DC080E490E0A0E0B0E004C08FE3EB
:1009400090E0A0E0B0E0E80EF91E0A1F1B1F17FFA1
:1009500005C016950795F794E794319687E01695AC
:100960000795F794E7948A95D1F705C0EE24FF2404
:100970008701EFEFF0E06E2F679566276795902F60
:100980009F77D794DD24D7948E2F8695492F462BB9
:10099000582F5D29B701CA011F910F91FF90EF9069
:1009A000DF900895FC01DB01408151812281622F9B
:1009B0006F7770E0221F2227221F9381892F880FD3
:1009C000822B282F30E0991F9927991F11969C930D
:1009D000119721153105A9F54115510561057105DD
:1009E00011F482E037C082E89FEF13969C938E93B8
:1009F00012979A01AB0167E0220F331F441F551F66
:100A00006A95D1F783E08C930DC0220F331F441FEA
:100A1000551F12968D919C911397019713969C9355
:100A20008E931297203080E0380780E0480780E4FA
:100A3000580758F314962D933D934D935C93179755
:100A400008952F3F310579F4411551056105710570
:100A500019F484E08C93089564FF03C081E08C93C3
:100A600012C01C9210C02F57304013963C932E9307
:100A7000129783E08C9387E0440F551F661F771F02
:100A80008A95D1F7706414964D935D936D937C9322
:100A9000179708951F93DC01FB019C91923008F495
:100AA00047C08081823008F443C0943051F41196DD
:100AB0001C91843099F58181682F70E0611B710968
:100AC0003FC0843021F0923031F48230B9F181811D
:100AD000882389F12DC011961C9111978230F1F075
:100AE00081811817D9F412962D913C911397828128
:100AF00093818217930794F028173907BCF0149656
:100B00008D919D910D90BC91A02D248135814681C0
:100B10005781281739074A075B0718F4112341F05A
:100B20000AC082179307A407B50740F4112319F0F0
:100B300061E070E005C06FEF7FEF02C060E070E041
:100B4000CB011F910895DF93CF9300D000D00F9277
:100B5000CDB7DEB789836A834B838981282F30E044
:100B60003D832C838C819D818130910509F446C0A1
:100B70002C813D81223031052CF48C819D810097A0
:100B800071F0C7C02C813D812230310509F465C068
:100B90008C819D818330910509F48EC0BAC08B8110
:100BA0008823A1F4AAE3B0E0EAE3F0E08081482FD3
:100BB0008A81282F30E081E090E0022E02C0880F69
:100BC000991F0A94E2F7809584238C938B8181305E
:100BD00009F09FC0AAE3B0E0EAE3F0E08081482F8B
:100BE0008A81282F30E081E090E0022E02C0880F39
:100BF000991F0A94E2F7842B8C938BC08B818823F6
:100C0000A1F4A7E3B0E0E7E3F0E08081482F8A8118
:100C1000282F30E081E090E0022E02C0880F991F5B
:100C20000A94E2F7809584238C938B81813009F0BC
:100C300070C0A7E3B0E0E7E3F0E08081482F8A814D
:100C4000282F30E081E090E0022E02C0880F991F2B
:100C50000A94E2F7842B8C935CC08B818823A1F4E7
:100C6000A4E3B0E0E4E3F0E08081482F8A81282FFC
:100C700030E081E090E0022E02C0880F991F0A94B4
:100C8000E2F7809584238C938B81813009F041C0F9
:100C9000A4E3B0E0E4E3F0E08081482F8A81282FCC
:100CA00030E081E090E0022E02C0880F991F0A9484
:100CB000E2F7842B8C932DC08B818823A1F4A1E3D0
:100CC000B0E0E1E3F0E08081482F8A81282F30E016
:100CD00081E090E0022E02C0880F991F0A94E2F78B
:100CE000809584238C938B81813099F4A1E3B0E0CB
:100CF000E1E3F0E08081482F8A81282F30E081E015
:100D000090E0022E02C0880F991F0A94E2F7842B0C
:100D10008C930F900F900F900F900F90CF91DF91C9
:100D20000895DF93CF9300D000D00F92CDB7DEB7F8
:100D300089836A834B838981282F30E03D832C830C
:100D40008C819D818130910509F446C02C813D81C3
:100D5000223031052CF48C819D81009771F0C7C041
:100D60002C813D812230310509F465C08C819D8143
:100D70008330910509F48EC0BAC08B818823A1F419
:100D8000ABE3B0E0EBE3F0E08081482F8A81282FCD
:100D900030E081E090E0022E02C0880F991F0A9493
:100DA000E2F7809584238C938B81813009F09FC07A
:100DB000ABE3B0E0EBE3F0E08081482F8A81282F9D
:100DC00030E081E090E0022E02C0880F991F0A9463
:100DD000E2F7842B8C938BC08B818823A1F4A8E34A
:100DE000B0E0E8E3F0E08081482F8A81282F30E0EE
:100DF00081E090E0022E02C0880F991F0A94E2F76A
:100E0000809584238C938B81813009F070C0A8E396
:100E1000B0E0E8E3F0E08081482F8A81282F30E0BD
:100E200081E090E0022E02C0880F991F0A94E2F739
:100E3000842B8C935CC08B818823A1F4A5E3B0E064
:100E4000E5E3F0E08081482F8A81282F30E081E0BF
:100E500090E0022E02C0880F991F0A94E2F7809555
:100E600084238C938B81813009F041C0A5E3B0E0ED
:100E7000E5E3F0E08081482F8A81282F30E081E08F
:100E800090E0022E02C0880F991F0A94E2F7842B8B
:100E90008C932DC08B818823A1F4A2E3B0E0E2E320
:100EA000F0E08081482F8A81282F30E081E090E0B7
:100EB000022E02C0880F991F0A94E2F780958423BE
:100EC0008C938B81813099F4A2E3B0E0E2E3F0E00F
:100ED0008081482F8A81282F30E081E090E0022E27
:100EE00002C0880F991F0A94E2F7842B8C930F900D
:100EF0000F900F900F900F90CF91DF910895DF9397
:100F0000CF9300D000D000D0CDB7DEB789836A83FD
:100F10008981282F30E03D832C834C815D814130D5
:100F20005105B1F18C819D818230910534F42C8181
:100F30003D812115310571F085C04C815D814230C4
:100F4000510509F443C08C819D818330910509F4DA
:100F50005BC078C0E9E3F0E08081482F50E08A81EF
:100F6000282F30E081E090E002C0880F991F2A9579
:100F7000E2F79A01282339238A81882F90E0A9017A
:100F800002C0559547958A95E2F7CA018B835BC0ED
:100F9000E6E3F0E08081482F50E08A81282F30E09E
:100FA00081E090E002C0880F991F2A95E2F79A012C
:100FB000282339238A81882F90E0A90102C0559502
:100FC00047958A95E2F7CA018B833DC0E3E3F0E0E1
:100FD0008081482F50E08A81282F30E081E090E026
:100FE00002C0880F991F2A95E2F79A012823392316
:100FF0008A81882F90E0A90102C0559547958A956E
:10100000E2F7CA018B831FC0E0E3F0E08081482F44
:1010100050E08A81282F30E081E090E002C0880F04
:10102000991F2A95E2F79A01282339238A81882F6C
:1010300090E0A90102C0559547958A95E2F7CA014B
:101040008B8301C002C05B815E838E8126960FB6C2
:10105000F894DEBF0FBECDBFCF91DF910895DF932F
:10106000CF9300D000D0CDB7DEB789836A83898162
:10107000282F30E03C832B838B819C81813091052C
:10108000D1F02B813C81223031052CF48B819C8165
:10109000009761F01EC02B813C812230310581F028
:1010A0008B819C818330910581F013C0EAE3F0E0ED
:1010B0008A8180830EC0E7E3F0E08A81808309C0E3
:1010C000E4E3F0E08A81808304C0E1E3F0E08A8118
:1010D00080830F900F900F900F90CF91DF91089524
:1010E000DF93CF9300D000D0CDB7DEB789836A837A
:1010F0008981282F30E03C832B838B819C81813038
:101100009105D1F02B813C81223031052CF48B816B
:101110009C81009761F01EC02B813C8122303105FB
:1011200081F08B819C818330910581F013C0EBE3CA
:10113000F0E08A8180830EC0E8E3F0E08A8180835A
:1011400009C0E5E3F0E08A81808304C0E2E3F0E0D7
:101150008A8180830F900F900F900F90CF91DF9135
:1011600008950F931F93DF93CF9300D000D0CDB796
:10117000DEB769837A838B839C83AAE2B0E0EAE2DC
:10118000F0E0808188698C93A0E4B0E0E0E4F0E0D6
:10119000808186688C9309E210E089819A81AB8115
:1011A000BC81880F991FAA1FBB1F880F991FAA1FF8
:1011B000BB1F880F991FAA1FBB1F880F991FAA1F4B
:1011C000BB1F9C01AD0180E092E1AAE7B0E0BC0149
:1011D000CD010E940419DA01C9018150F801808310
:1011E00000E410E089819A81AB81BC81880F991F4E
:1011F000AA1FBB1F880F991FAA1FBB1F880F991F0B
:10120000AA1FBB1F880F991FAA1FBB1F9C01AD01FE
:1012100080E092E1AAE7B0E0BC01CD010E94041990
:10122000DA01C9010197A109B109892F9A2FAB2FC2
:10123000BB27F80180830F900F900F900F90CF91F4
:10124000DF911F910F910895DF93CF93CDB7DEB754
:10125000EBE2F0E080818823DCF7ECE2F0E08081D3
:10126000CF91DF910895DF93CF930F92CDB7DEB783
:101270008983ECE2F0E089818083EBE2F0E0808119
:10128000882F90E0807290700097B9F30F90CF9103
:10129000DF910895DF93CF9300D000D0CDB7DEB7B4
:1012A0009C838B831A8219820FC029813A818B819A
:1012B0009C81FC01E20FF31F80810E943309898128
:1012C0009A8101969A83898329813A818B819C81B5
:1012D000FC01E20FF31F8081882339F70F900F90F4
:1012E0000F900F90CF91DF910895DF93CF93CDB7FB
:1012F000DEB72F970FB6F894DEBF0FBECDBF8F8736
:1013000082E060E040E00E94910682E061E040E01F
:101310000E94910681E06F850E94700882E062E081
:1013200041E00E94910680E090E0A0E8BFE38B8757
:101330009C87AD87BE876B857C858D859E8520E0EB
:1013400030E04AEF54E40E941F02DC01CB018F839E
:101350009887A987BA876F81788589859A8520E0E3
:1013600030E040E85FE30E94790388232CF481E0B9
:1013700090E09E838D833FC06F81788589859A85B3
:1013800020E03FEF4FE757E40E94190318164CF591
:101390006B857C858D859E8520E030E040E251E4C0
:1013A0000E941F02DC01CB01BC01CD010E9449005B
:1013B000DC01CB019E838D830FC088EC90E09C8381
:1013C0008B838B819C810197F1F79C838B838D812B
:1013D0009E8101979E838D838D819E81009769F701
:1013E00014C06F81788589859A850E944900DC0147
:1013F000CB019E838D838D819E819A838983898190
:101400009A810197F1F79A83898382E062E040E054
:101410000E9491062F960FB6F894DEBF0FBECDBF87
:10142000CF91DF910895DF93CF93CDB7DEB72F979C
:101430000FB6F894DEBF0FBECDBF8F8782E060E0AD
:1014400041E00E94910682E061E040E00E94910646
:1014500081E06F850E94700882E062E041E00E94B6
:10146000910680E090E0A0E8BFE38B879C87AD8782
:10147000BE876B857C858D859E8520E030E04AEFB8
:1014800054E40E941F02DC01CB018F839887A98757
:10149000BA876F81788589859A8520E030E040E8B9
:1014A0005FE30E94790388232CF481E090E09E831F
:1014B0008D833FC06F81788589859A8520E03FEFD5
:1014C0004FE757E40E94190318164CF56B857C858D
:1014D0008D859E8520E030E040E251E40E941F02AD
:1014E000DC01CB01BC01CD010E944900DC01CB0134
:1014F0009E838D830FC088EC90E09C838B838B81CF
:101500009C810197F1F79C838B838D819E8101974C
:101510009E838D838D819E81009769F714C06F81B2
:10152000788589859A850E944900DC01CB019E83DC
:101530008D838D819E819A83898389819A81019788
:10154000F1F79A83898382E062E040E00E9491068D
:101550002F960FB6F894DEBF0FBECDBFCF91DF91AF
:101560000895DF93CF93CDB7DEB7AA970FB6F8945F
:10157000DEBF0FBECDBF81E06FEF0E942F0882E07B
:1015800060E041E00E94A30582E061E041E00E944A
:10159000A30582E062E041E00E94A30580E090E0C4
:1015A000A8E4B2E48FA398A7A9A7BAA76FA178A5CA
:1015B00089A59AA520E030E04AEF54E40E941F027A
:1015C000DC01CB018BA39CA3ADA3BEA36BA17CA12B
:1015D0008DA19EA120E030E040E85FE30E94790306
:1015E00088232CF481E090E09AA389A33FC06BA1EB
:1015F0007CA18DA19EA120E03FEF4FE757E40E9420
:10160000190318164CF56FA178A589A59AA520E0B5
:1016100030E040E251E40E941F02DC01CB01BC013A
:10162000CD010E944900DC01CB019AA389A30FC020
:1016300088EC90E098A38F8F8F8D98A10197F1F798
:1016400098A38F8F89A19AA101979AA389A389A1B1
:101650009AA1009769F714C06BA17CA18DA19EA1EE
:101660000E944900DC01CB019AA389A389A19AA118
:101670009E8F8D8F8D8D9E8D0197F1F79E8F8D8F13
:101680008CE30E94750980E090E0A0E8BFE3898FB9
:101690009A8FAB8FBC8F698D7A8D8B8D9C8D20E05E
:1016A00030E04AEF54E40E941F02DC01CB018D8B35
:1016B0009E8BAF8BB88F6D897E898F89988D20E046
:1016C00030E040E85FE30E94790388232CF481E056
:1016D00090E09C8B8B8B3FC06D897E898F89988D24
:1016E00020E03FEF4FE757E40E94190318164CF52E
:1016F000698D7A8D8B8D9C8D20E030E040E251E445
:101700000E941F02DC01CB01BC01CD010E944900F7
:10171000DC01CB019C8B8B8B0FC088EC90E09A8B0B
:10172000898B89899A890197F1F79A8B898B8B89A3
:101730009C8901979C8B8B8B8B899C89009769F77F
:1017400014C06D897E898F89988D0E944900DC01C3
:10175000CB019C8B8B8B8B899C89988B8F878F85FA
:1017600098890197F1F7988B8F878CE00E94750913
:1017700080E090E0A0E8BFE38B879C87AD87BE87C1
:101780006B857C858D859E8520E030E04AEF54E4B2
:101790000E941F02DC01CB018F839887A987BA873B
:1017A0006F81788589859A8520E030E040E85FE3A5
:1017B0000E94790388232CF481E090E09E838D833E
:1017C0003FC06F81788589859A8520E03FEF4FE79C
:1017D00057E40E94190318164CF56B857C858D859E
:1017E0009E8520E030E040E251E40E941F02DC01CF
:1017F000CB01BC01CD010E944900DC01CB019E83DD
:101800008D830FC088EC90E09C838B838B819C81BF
:101810000197F1F79C838B838D819E8101979E8335
:101820008D838D819E81009769F714C06F817885C3
:1018300089859A850E944900DC01CB019E838D83B6
:101840008D819E819A83898389819A810197F1F79D
:101850009A83898381E00E947509AA960FB6F8944D
:10186000DEBF0FBECDBFCF91DF910895DF93CF9341
:1018700000D0CDB7DEB79A8389830BC0E981FA81A6
:10188000208189819A8101969A838983822F0E947F
:10189000130AE981FA818081882381F70F900F90E4
:1018A000CF91DF910895DF93CF9300D0CDB7DEB70E
:1018B00089836A838A81882341F48981803128F46D
:1018C000898180580E94750912C08A81813041F453
:1018D0008981803128F4898180540E94750907C06C
:1018E00083E80E94750980E690E00E94360C0F9014
:1018F0000F90CF91DF910895DF93CF9300D000D068
:10190000CDB7DEB79C838B8381E090E09A83898397
:101910008B819C81009731F580E30E94130A22C0DD
:1019200089819A819C01220F331FC901880F991F59
:10193000880F991FF901E80FF91F8B819C812AE01C
:1019400030E0B9010E94F0188E0F9F1F9A8389839F
:101950008B819C812AE030E0B9010E94F018CB0114
:101960009C838B838B819C810097D1F614C08981E5
:101970009A812AE030E0B9010E94F018805D0E944F
:10198000130A89819A812AE030E0B9010E94F01897
:10199000CB019A83898389819A818130910539F7B6
:1019A0000F900F900F900F90CF91DF9108950F93AC
:1019B0001F93DF93CF93CDB7DEB7C655D0400FB698
:1019C000F894DEBF0FBECDBF1092410210924002CC
:1019D00084E092E060E070E04CE350E00E948D19FA
:1019E0000E94B10A60E07BE480E090E00E94B108D0
:1019F000789480E060E00E94530C8EE690E00E94B4
:101A0000360CFE01EF5AFF4F80E090E8ABE3B5E4FF
:101A100080839183A283B3838E01035B1F4FFE01FA
:101A2000EF5AFF4F608171818281938120E030E025
:101A30004AEF54E40E941F02DC01CB01F8018083CD
:101A40009183A283B383FE01E35BFF4F60817181C9
:101A50008281938120E030E040E85FE30E947903D7
:101A6000882344F4FE01E55BFF4F81E090E0918321
:101A7000808364C0FE01E35BFF4F608171818281DE
:101A8000938120E03FEF4FE757E40E9419031816B7
:101A90000CF043C0FE01EF5AFF4F608171818281DB
:101AA000938120E030E040E251E40E941F02DC011B
:101AB000CB018E01055B1F4FBC01CD010E94490087
:101AC000DC01CB01F801918380831FC0FE01E75B3D
:101AD000FF4F88EC90E091838083FE01E75BFF4F2E
:101AE000808191810197F1F7FE01E75BFF4F9183C0
:101AF0008083DE01A55BBF4FFE01E55BFF4F808168
:101B00009181019711969C938E93FE01E55BFF4FA7
:101B1000808191810097D1F627C08E01055B1F4F10
:101B2000FE01E35BFF4F60817181828193810E949E
:101B30004900DC01CB01F80191838083DE01A95BC0
:101B4000BF4FFE01E55BFF4F808191818D939C9398
:101B5000FE01E95BFF4F808191810197F1F7FE0162
:101B6000E95BFF4F9183808381E00E94750981E0EA
:101B700060E00E94530C8FE790E00E94360C0E94B8
:101B8000951081E00E94750980915201813009F021
:101B9000B3C20E947B12FE01EB5AFF4F882F90E0E8
:101BA00091838083FE01EB5AFF4F808191818130C8
:101BB000910509F097C281E00E94750981E060E01B
:101BC0000E94530C82E890E00E94360CFE01ED5B0F
:101BD000FF4F80E090E0AAE7B4E480839183A28382
:101BE000B3838E01015C1F4FFE01ED5BFF4F6081EF
:101BF00071818281938120E030E04AEF54E40E94B9
:101C00001F02DC01CB01F80180839183A283B3839F
:101C1000FE01FF96608171818281938120E030E036
:101C200040E85FE30E94790388232CF481E090E090
:101C30009EAF8DAF46C0FE01FF96608171818281AB
:101C4000938120E03FEF4FE757E40E9419031816F5
:101C500064F5FE01ED5BFF4F6081718182819381AC
:101C600020E030E040E251E40E941F02DC01CB01A1
:101C7000BC01CD010E944900DC01CB019EAF8DAFBC
:101C80000FC088EC90E09CAF8BAF8BAD9CAD019703
:101C9000F1F79CAF8BAF8DAD9EAD01979EAF8DAF31
:101CA0008DAD9EAD009769F716C0FE01FF9660816D
:101CB0007181828193810E944900DC01CB019EAF3A
:101CC0008DAF8DAD9EAD9AAF89AF89AD9AAD0197BD
:101CD000F1F79AAF89AF81E00E94750980915301B5
:101CE000909154010E94571780E090E8ABE3B5E46F
:101CF0008DAB9EABAFABB8AF6DA97EA98FA998ADE8
:101D000020E030E04AEF54E40E941F02DC01CB01E6
:101D100089AB9AABABABBCAB69A97AA98BA99CA9DF
:101D200020E030E040E85FE30E94790388232CF450
:101D300081E090E098AB8FA73FC069A97AA98BA9F1
:101D40009CA920E03FEF4FE757E40E9419031816C3
:101D50004CF56DA97EA98FA998AD20E030E040E256
:101D600051E40E941F02DC01CB01BC01CD010E94A5
:101D70004900DC01CB0198AB8FA70FC088EC90E045
:101D80009EA78DA78DA59EA50197F1F79EA78DA76C
:101D90008FA598A9019798AB8FA78FA598A90097B1
:101DA00069F714C069A97AA98BA99CA90E94490066
:101DB000DC01CB0198AB8FA78FA598A99CA78BA717
:101DC0008BA59CA50197F1F79CA78BA784E092E0D7
:101DD0002EE830E0B9010E94AB19009709F4FDC06C
:101DE00086EF91E00E943C1581E00E94750981E038
:101DF00060E00E94530C86E990E00E94360C80E07F
:101E000090E6AAE6B6E48FA398A7A9A7BAA76FA100
:101E100078A589A59AA520E030E04AEF54E40E9415
:101E20001F02DC01CB018BA39CA3ADA3BEA36BA1BE
:101E30007CA18DA19EA120E030E040E85FE30E94FC
:101E4000790388232CF481E090E09AA389A33FC012
:101E50006BA17CA18DA19EA120E03FEF4FE757E44D
:101E60000E94190318164CF56FA178A589A59AA5AB
:101E700020E030E040E251E40E941F02DC01CB018F
:101E8000BC01CD010E944900DC01CB019AA389A3CA
:101E90000FC088EC90E098A38F8F8F8D98A1019749
:101EA000F1F798A38F8F89A19AA101979AA389A38B
:101EB00089A19AA1009769F714C06BA17CA18DA19B
:101EC0009EA10E944900DC01CB019AA389A389A1AC
:101ED0009AA19E8F8D8F8D8D9E8D0197F1F79E8F8C
:101EE0008D8F0E94711581E060E00E94530C81EAA1
:101EF00090E00E94360C80E090E0AAE7B4E4898F7D
:101F00009A8FAB8FBC8F698D7A8D8B8D9C8D20E0E5
:101F100030E04AEF54E40E941F02DC01CB018D8BBC
:101F20009E8BAF8BB88F6D897E898F89988D20E0CD
:101F300030E040E85FE30E94790388232CF481E0DD
:101F400090E09C8B8B8B3FC06D897E898F89988DAB
:101F500020E03FEF4FE757E40E94190318164CF5B5
:101F6000698D7A8D8B8D9C8D20E030E040E251E4CC
:101F70000E941F02DC01CB01BC01CD010E9449007F
:101F8000DC01CB019C8B8B8B0FC088EC90E09A8B93
:101F9000898B89899A890197F1F79A8B898B8B892B
:101FA0009C8901979C8B8B8B8B899C89009769F707
:101FB00014C06D897E898F89988D0E944900DC014B
:101FC000CB019C8B8B8B8B899C89988B8F878F8582
:101FD00098890197F1F7988B8F8781E00E947509A6
:101FE00080915301909154010E94371281E060E08A
:101FF0000E94530C8BEA90E00E94360C0E947F15E1
:1020000080E090E0AAE7B4E48B879C87AD87BE8729
:102010006B857C858D859E8520E030E04AEF54E419
:102020000E941F02DC01CB018F839887A987BA87A2
:102030006F81788589859A8520E030E040E85FE30C
:102040000E94790388232CF481E090E09E838D83A5
:102050003FC06F81788589859A8520E03FEF4FE703
:1020600057E40E94190318164CF56B857C858D8505
:102070009E8520E030E040E251E40E941F02DC0136
:10208000CB01BC01CD010E944900DC01CB019E8344
:102090008D830FC088EC90E09C838B838B819C8127
:1020A0000197F1F79C838B838D819E8101979E839D
:1020B0008D838D819E81009769F714C06F8178852B
:1020C00089859A850E944900DC01CB019E838D831E
:1020D0008D819E819A83898389819A810197F1F705
:1020E0009A838983FE01EB5AFF4F1182108210926E
:1020F000520181E00E94750981E060E00E94530C6A
:1021000085EB90E00E94360C86EF91E060E070E095
:102110004EE050E00E948D1984E092E060E070E0B3
:102120004CE350E00E948D192FCDDF93CF93CDB7B4
:10213000DEB7AA970FB6F894DEBF0FBECDBF80EC16
:102140000E94750985EC90E00E944A0980E090E0C9
:10215000AAEFB3E48FA398A7A9A7BAA76FA178A500
:1021600089A59AA520E030E04AEF54E40E941F02BE
:10217000DC01CB018BA39CA3ADA3BEA36BA17CA16F
:102180008DA19EA120E030E040E85FE30E9479034A
:1021900088232CF481E090E09AA389A33FC06BA12F
:1021A0007CA18DA19EA120E03FEF4FE757E40E9464
:1021B000190318164CF56FA178A589A59AA520E0FA
:1021C00030E040E251E40E941F02DC01CB01BC017F
:1021D000CD010E944900DC01CB019AA389A30FC065
:1021E00088EC90E098A38F8F8F8D98A10197F1F7DD
:1021F00098A38F8F89A19AA101979AA389A389A1F6
:102200009AA1009769F714C06BA17CA18DA19EA132
:102210000E944900DC01CB019AA389A389A19AA15C
:102220009E8F8D8F8D8D9E8D0197F1F79E8F8D8F57
:1022300086E591E02BEC30E0B9010E94AB190097E4
:1022400009F403C10E947F1586E591E060E070E02B
:1022500040EA50E00E948D1980E090E0AAE7B4E4E3
:10226000898F9A8FAB8FBC8F698D7A8D8B8D9C8D6A
:1022700020E030E04AEF54E40E941F02DC01CB0171
:102280008D8B9E8BAF8BB88F6D897E898F89988D52
:1022900020E030E040E85FE30E94790388232CF4DB
:1022A00081E090E09C8B8B8B3FC06D897E898F890C
:1022B000988D20E03FEF4FE757E40E94190318166E
:1022C0004CF5698D7A8D8B8D9C8D20E030E040E25D
:1022D00051E40E941F02DC01CB01BC01CD010E9430
:1022E0004900DC01CB019C8B8B8B0FC088EC90E00C
:1022F0009A8B898B89899A890197F1F79A8B898BB7
:102300008B899C8901979C8B8B8B8B899C890097EF
:1023100069F714C06D897E898F89988D0E94490064
:10232000DC01CB019C8B8B8B8B899C89988B8F8755
:102330008F8598890197F1F7988B8F8781E00E94AC
:10234000750981E060E00E94530C8EEC90E00E94E1
:10235000360C80EC0E94750988ED90E00E944A09D5
:102360000E947F1580E090E0AAE7B4E48B879C8709
:10237000AD87BE876B857C858D859E8520E030E0AE
:102380004AEF54E40E941F02DC01CB018F8398873F
:10239000A987BA876F81788589859A8520E030E0A2
:1023A00040E85FE30E94790388232CF481E090E009
:1023B0009E838D833FC06F81788589859A8520E0D3
:1023C0003FEF4FE757E40E94190318164CF56B8551
:1023D0007C858D859E8520E030E040E251E40E94BE
:1023E0001F02DC01CB01BC01CD010E944900DC01D0
:1023F000CB019E838D830FC088EC90E09C838B8300
:102400008B819C810197F1F79C838B838D819E81C9
:1024100001979E838D838D819E81009769F71EC0F1
:102420006F81788589859A850E944900DC01CB01FE
:102430009E838D838D819E819A83898389819A81F0
:102440000197F1F79A83898309C081E060E00E94D7
:10245000530C83EE90E00E94360C71CEAA960FB614
:10246000F894DEBF0FBECDBFCF91DF910895DF930B
:10247000CF93CDB7DEB766970FB6F894DEBF0FBE29
:10248000CDBF9E8B8D8B109241021092400200D0E6
:1024900000D000D0EDB7FEB73196CE010196918302
:1024A000808389EE90E0938382838D899E899583D2
:1024B00084830E94CD198DB79EB706960FB6F89407
:1024C0009EBF0FBE8DBFCE0101960E944A0966963F
:1024D0000FB6F894DEBF0FBECDBFCF91DF91089548
:1024E000DF93CF93CDB7DEB785EF90E00E944A0926
:1024F000CF91DF910895DF93CF93CDB7DEB7659786
:102500000FB6F894DEBF0FBECDBF80E090E0AAEF1B
:10251000B3E48B879C87AD87BE876B857C858D8573
:102520009E8520E030E04AEF54E40E941F02DC0167
:10253000CB018F839887A987BA876F817885898532
:102540009A8520E030E040E85FE30E947903882329
:102550002CF481E090E09E838D833FC06F8178856D
:1025600089859A8520E03FEF4FE757E40E941903E1
:1025700018164CF56B857C858D859E8520E030E0B6
:1025800040E251E40E941F02DC01CB01BC01CD01FD
:102590000E944900DC01CB019E838D830FC088EC33
:1025A00090E09C838B838B819C810197F1F79C83C6
:1025B0008B838D819E8101979E838D838D819E81EA
:1025C000009769F714C06F81788589859A850E9484
:1025D0004900DC01CB019E838D838D819E819A838E
:1025E000898389819A810197F1F79A83898310926F
:1025F0004102109240028091400290914102FC0100
:10260000EA5AFE4F80818D3051F0809140029091C6
:102610004102FC01EA5AFE4F80818A3051F48091D8
:1026200040029091410201969093410280934002B2
:10263000E2CF86E591E029E031E0B9010E94AB19D3
:10264000009709F463C009C0809140029091410253
:1026500001969093410280934002809140029091B4
:102660004102FC01EA5AFE4F80818C3269F7809169
:102670004002909141020196909341028093400262
:10268000188A1F861EC02F8538898091400290913C
:102690004102FC01EA5AFE4F4081CE014196FC0105
:1026A000E20FF31F40838091400290914102019616
:1026B00090934102809340028F8598890196988B70
:1026C0008F878091400290914102FC01EA5AFE4FAF
:1026D00080818D30C1F6CE0141960E945D199093A4
:1026E00054018093530186E591E00E9494199C0166
:1026F00086E591E060E070E0A9010E948D191092DA
:1027000041021092400281E08D8B01C01D8A8D89AB
:1027100065960FB6F894DEBF0FBECDBFCF91DF91A7
:1027200008951F920F920FB60F9211242F938F933B
:102730009F93EF93FF93DF93CF93CDB7DEB7809155
:10274000400290914102ECE2F0E02081FC01EA5A63
:10275000FE4F208380914002909141020196909318
:1027600041028093400281E080935201CF91DF913A
:10277000FF91EF919F918F912F910F900FBE0F902E
:102780001F901895DF93CF93CDB7DEB7C354D040D9
:102790000FB6F894DEBF0FBECDBFFE01E05CFF4F69
:1027A00091838083FE01EE5BFF4F71836083109203
:1027B00041021092400200D000D000D0ADB7BEB7A9
:1027C0001196CE014D9611969C938E938FE091E0D9
:1027D00013969C938E931297FE01E05CFF4F8081CD
:1027E000918115969C938E9314970E94CD198DB765
:1027F0009EB706960FB6F8949EBF0FBE8DBFCE0152
:102800004D960E944A0980E090E0A8E4B3E4898FE5
:102810009A8FAB8FBC8F698D7A8D8B8D9C8D20E0CC
:1028200030E04AEF54E40E941F02DC01CB018D8BA3
:102830009E8BAF8BB88F6D897E898F89988D20E0B4
:1028400030E040E85FE30E94790388232CF481E0C4
:1028500090E09C8B8B8B3FC06D897E898F89988D92
:1028600020E03FEF4FE757E40E94190318164CF59C
:10287000698D7A8D8B8D9C8D20E030E040E251E4B3
:102880000E941F02DC01CB01BC01CD010E94490066
:10289000DC01CB019C8B8B8B0FC088EC90E09A8B7A
:1028A000898B89899A890197F1F79A8B898B8B8912
:1028B0009C8901979C8B8B8B8B899C89009769F7EE
:1028C00014C06D897E898F89988D0E944900DC0132
:1028D000CB019C8B8B8B8B899C89988B8F878F8569
:1028E00098890197F1F7988B8F878091400290919A
:1028F0004102FC01EA5AFE4F80818E3309F0B2C0DA
:10290000109241021092400286E591E00E949419D3
:102910009C0186E591E060E070E0A9010E948D19BC
:10292000FE01EE5BFF4F808191810E944A098AE19E
:102930000E94330980E090E0A6E9B3E48B879C878E
:10294000AD87BE876B857C858D859E8520E030E0D8
:102950004AEF54E40E941F02DC01CB018F83988769
:10296000A987BA876F81788589859A8520E030E0CC
:1029700040E85FE30E94790388232CF481E090E033
:102980009E838D833FC06F81788589859A8520E0FD
:102990003FEF4FE757E40E94190318164CF56B857B
:1029A0007C858D859E8520E030E040E251E40E94E8
:1029B0001F02DC01CB01BC01CD010E944900DC01FA
:1029C000CB019E838D830FC088EC90E09C838B832A
:1029D0008B819C810197F1F79C838B838D819E81F4
:1029E00001979E838D838D819E81009769F714C026
:1029F0006F81788589859A850E944900DC01CB0129
:102A00009E838D838D819E819A83898389819A811A
:102A10000197F1F79A838983109241021092400244
:102A200086E591E00E9494199C0186E591E060E0C2
:102A300070E0A9010E948D19CE014D960E94941953
:102A40009C01CE014D9660E070E0A9010E948D19B5
:102A5000CD5BDF4F0FB6F894DEBF0FBECDBFCF9179
:102A6000DF910895809140029091410201969093E8
:102A700041028093400239CFDF93CF93CDB7DEB7C9
:102A800066970FB6F894DEBF0FBECDBF9E8B8D8BC1
:102A900000D000D000D0EDB7FEB73196CE01019640
:102AA000918380838DE191E0938382838D899E89D8
:102AB000958384830E94CD198DB79EB706960FB675
:102AC000F8949EBF0FBE8DBFCE0101960E944A09A9
:102AD00066960FB6F894DEBF0FBECDBFCF91DF91E3
:102AE0000895DF93CF93CDB7DEB781E00E947509DB
:102AF00085E291E00E944A09CF91DF9108950F93FA
:102B00001F93DF93CF93CDB7DEB7A7970FB6F89497
:102B1000DEBF0FBECDBF1CA21BA21AA219A218A213
:102B20001F8E8BA19CA12AEE8036920708F048C127
:102B300086E591E00E94941998A38F8F8F8D98A1BC
:102B4000009709F4C5C080E090E0A0E0B0E4898F70
:102B50009A8FAB8FBC8F698D7A8D8B8D9C8D20E089
:102B600030E04AEF54E40E941F02DC01CB018D8B60
:102B70009E8BAF8BB88F6D897E898F89988D20E071
:102B800030E040E85FE30E94790388232CF481E081
:102B900090E09C8B8B8B3FC06D897E898F89988D4F
:102BA00020E03FEF4FE757E40E94190318164CF559
:102BB000698D7A8D8B8D9C8D20E030E040E251E470
:102BC0000E941F02DC01CB01BC01CD010E94490023
:102BD000DC01CB019C8B8B8B0FC088EC90E09A8B37
:102BE000898B89899A890197F1F79A8B898B8B89CF
:102BF0009C8901979C8B8B8B8B899C89009769F7AB
:102C000014C06D897E898F89988D0E944900DC01EE
:102C1000CB019C8B8B8B8B899C89988B8F878F8525
:102C200098890197F1F7988B8F878BA19CA10196CA
:102C30009CA38BA30F8D18A186E591E00E949419A7
:102C40000817190709F044C01E8E1D8E38C0AE014A
:102C50004B5D5F4FCE0185969C012F5F3F4FCA01B0
:102C6000B90141E050E00E947B198D8D9E8DFC01E1
:102C7000EA5AFE4F80818EA3CE0185962AE231E08A
:102C8000B90142E050E00E949D19009799F01FA2FF
:102C900089A19AA18230910511F481E08FA389A1C5
:102CA0009AA101969AA389A32FA1222319F00E9429
:102CB000EB1686C08D8D9E8D01969E8F8D8F2D8DEE
:102CC0003E8D8F8D98A1281739070CF21AA219A2F0
:102CD00080E090E0A0E8BFE38B879C87AD87BE874C
:102CE0006B857C858D859E8520E030E04AEF54E43D
:102CF0000E941F02DC01CB018F839887A987BA87C6
:102D00006F81788589859A8520E030E040E85FE32F
:102D10000E94790388232CF481E090E09E838D83C8
:102D20003FC06F81788589859A8520E03FEF4FE726
:102D300057E40E94190318164CF56B857C858D8528
:102D40009E8520E030E040E251E40E941F02DC0159
:102D5000CB01BC01CD010E944900DC01CB019E8367
:102D60008D830FC088EC90E09C838B838B819C814A
:102D70000197F1F79C838B838D819E8101979E83C0
:102D80008D838D819E81009769F714C06F8178854E
:102D900089859A850E944900DC01CB019E838D8341
:102DA0008D819E819A83898389819A810197F1F728
:102DB0009A8389838BA19CA101969CA38BA3B1CEFE
:102DC000A7960FB6F894DEBF0FBECDBFCF91DF91AF
:102DD0001F910F910895DF93CF9300D0CDB7DEB749
:102DE00010924102109240021A8219828091400290
:102DF00090914102FC01EA5AFE4F80818D3051F0E2
:102E00008091400290914102FC01EA5AFE4F80817C
:102E10008A3051F480914002909141020196909342
:102E2000410280934002E2CF80EC0E94750920C0ED
:102E30008091400290914102FC01EA5AFE4F80814C
:102E40000E94130A80914002909141020196909352
:102E500041028093400289819A8101969A838983F5
:102E600089819A818F30910519F480E80E94750953
:102E70008091400290914102FC01EA5AFE4F80810C
:102E80008D30B1F6109241021092400286E591E039
:102E90000E9494199C0186E591E060E070E0A90130
:102EA0000E948D190F900F90CF91DF910895DF93BD
:102EB000CF93CDB7DEB72C970FB6F894DEBF0FBE19
:102EC000CDBF9C878B8700D000D000D0EDB7FEB778
:102ED0003196CE010196918380838DE291E09383B8
:102EE00082838B859C85958384830E94CD198DB7C1
:102EF0009EB706960FB6F8949EBF0FBE8DBFCE014B
:102F000001960E944A090E948E172C960FB6F894DB
:102F1000DEBF0FBECDBFCF91DF910895DF93CF937A
:102F2000CDB7DEB762970FB6F894DEBF0FBECDBF48
:102F300080E090E0AAEFB3E48B879C87AD87BE87E3
:102F40006B857C858D859E8520E030E04AEF54E4DA
:102F50000E941F02DC01CB018F839887A987BA8763
:102F60006F81788589859A8520E030E040E85FE3CD
:102F70000E94790388232CF481E090E09E838D8366
:102F80003FC06F81788589859A8520E03FEF4FE7C4
:102F900057E40E94190318164CF56B857C858D85C6
:102FA0009E8520E030E040E251E40E941F02DC01F7
:102FB000CB01BC01CD010E944900DC01CB019E8305
:102FC0008D830FC088EC90E09C838B838B819C81E8
:102FD0000197F1F79C838B838D819E8101979E835E
:102FE0008D838D819E81009769F714C06F817885EC
:102FF00089859A850E944900DC01CB019E838D83DF
:103000008D819E819A83898389819A810197F1F7C5
:103010009A83898386E591E029E331E0B9010E9432
:10302000AB19009749F481E060E00E94530C8FE3F4
:1030300091E00E94360CC9C01092410210924002E9
:103040008091400290914102FC01EA5AFE4F80813A
:103050008D3051F08091400290914102FC01EA5A7A
:10306000FE4F80818E3699F480914002909141020A
:1030700001969093410280934002E2CF80914002FA
:103080009091410201969093410280934002809179
:10309000400290914102FC01EA5AFE4F80818C323D
:1030A00069F780914002909141020296909341020B
:1030B00080934002188A1F861CC02F853889809112
:1030C000400290914102FC01EA5AFE4F8081F901D1
:1030D000EA50FE4F80838091400290914102019618
:1030E00090934102809340028F8598890196988B36
:1030F0008F878F8598898D309105FCF280914002F1
:1031000090914102019690934102809340028091F8
:103110004002909141020197FC01EA5AFE4F8081E2
:103120008A3061F780EC0E9475091A8A198A2EC0CC
:103130008091400290914102FC01EA5AFE4F808149
:103140000E94130A29893A89809140029091410294
:10315000FC01EA5AFE4F8081F901EC5FFD4F80834C
:103160008091400290914102019690934102809398
:10317000400289899A8901969A8B898B89899A89D3
:103180008031910519F480E80E9475098091400210
:1031900090914102FC01EA5AFE4F80818D3029F066
:1031A00089899A898F3191051CF2109241021092FF
:1031B000400286E591E00E9494199C0186E591E029
:1031C00060E070E0A9010E948D1910925201629690
:1031D0000FB6F894DEBF0FBECDBFCF91DF9108953B
:1031E000AA1BBB1B51E107C0AA1FBB1FA617B7072D
:1031F00010F0A61BB70B881F991F5A95A9F7809549
:103200009095BC01CD010895A1E21A2EAA1BBB1B0B
:10321000FD010DC0AA1FBB1FEE1FFF1FA217B307A2
:10322000E407F50720F0A21BB30BE40BF50B661FB8
:10323000771F881F991F1A9469F76095709580957C
:1032400090959B01AC01BD01CF0108952F923F9253
:103250004F925F926F927F928F929F92AF92BF92A6
:10326000CF92DF92EF92FF920F931F93CF93DF9352
:10327000CDB7DEB7CA1BDB0B0FB6F894DEBF0FBEAF
:10328000CDBF09942A88398848885F846E847D84FC
:103290008C849B84AA84B984C884DF80EE80FD80FE
:1032A0000C811B81AA81B981CE0FD11D0FB6F89474
:1032B000DEBF0FBECDBFED010895FC018827992721
:1032C000E89421912032E9F3293010F02E30C8F330
:1032D0002B3241F02D3239F4689404C00E94C51994
:1032E000820F911D219120532A30C0F31EF4909536
:1032F00081959F4F08956817790768F4FB01DC01F9
:10330000E40FF51FA40FB51F02C002900E924150AA
:103310005040D8F708950C94D91BDC0101C06D937F
:1033200041505040E0F70895FC0101900020E9F77A
:10333000809590958E0F9F1F0895FB01DC014150F1
:10334000504030F08D910190801919F40020B9F7A8
:10335000881B990B0895FB0151915523A9F0BF01DA
:10336000DC014D9145174111E1F759F4CD01019070
:10337000002049F04D9140154111C9F3FB01411165
:10338000EFCF81E090E0019708957AE0979F902D2C
:10339000879F802D910D11240895AEE0B0E0E3EDFC
:1033A000F9E10C9434190D891E8986E08C831A8307
:1033B00009838FEF9FE79E838D839E01275E3F4F9A
:1033C000CE0101966F89788DA9010E94F1192F8194
:1033D0003885020F131FF80110822E96E4E00C943A
:1033E0005019ABE0B0E0E7EFF9E10C9426193C018D
:1033F0002B015A01FC0117821682838181FD03C0D3
:103400006FEF7FEFC6C19AE0892E1E010894211C40
:10341000311CF3012381F20123FD859123FF81916A
:103420002F01882309F4B2C1853239F423FD859137
:1034300023FF81912F01853229F490E0B3010E948E
:10344000ED1BE7CF982FFF24EE249924FFE1FF1511
:10345000D0F09B3269F09C3228F4903259F09332CC
:1034600091F40EC09D3249F0903369F441E024C0DC
:1034700052E0F52A84E0F82A28C098E0F92A25C00D
:10348000E0E1FE2A22C0F7FC29C0892F80538A3050
:1034900070F4F6FE05C0989C902C1124980E15C06F
:1034A000E89CE02C1124E80EF0E2FF2A0EC09E32C8
:1034B00029F4F6FC6BC140E4F42A07C09C3619F4E9
:1034C00050E8F52A02C0983649F4F20123FD95919F
:1034D00023FF91912F01992309F0B8CF892F8554AB
:1034E000833018F08052833038F444E050E0A40E6A
:1034F000B51E5FE359830FC0933631F0933779F0EF
:10350000933509F056C020C0F5018081898342E0DF
:1035100050E0A40EB51E610101E010E012C0F501FB
:10352000C080D180F6FC03C06FEF7FEF02C0692D31
:1035300070E042E050E0A40EB51EC6010E94E21BFE
:103540008C015FE7F52214C0F501C080D180F6FC44
:1035500003C06FEF7FEF02C0692D70E042E050E0E2
:10356000A40EB51EC6010E94CE1B8C0150E8F52AA0
:10357000F3FE07C01AC080E290E0B3010E94ED1B89
:10358000EA948E2D90E008171907A8F30EC0F601F3
:10359000F7FC8591F7FE81916F0190E0B3010E94E5
:1035A000ED1BE110EA94015010400115110579F767
:1035B000EAC0943611F0993669F5F7FE08C0F501B6
:1035C000208131814281538184E090E00AC0F5017D
:1035D000808191819C01442737FD4095542F82E0E2
:1035E00090E0A80EB91E9FE6F92257FF09C050953A
:1035F0004095309521953F4F4F4F5F4FE0E8FE2AB1
:10360000CA01B901A1012AE030E00E94191CD82E9C
:10361000D21840C0953729F41F2D1F7E2AE030E0D4
:103620001DC01F2D197F9F3661F0903720F498350B
:1036300009F0ACC00FC0903739F0983709F0A6C038
:1036400004C028E030E00AC0106114FD146020E1DD
:1036500030E004C014FD166020E132E017FF08C01E
:10366000F501608171818281938144E050E008C05E
:10367000F50180819181BC0180E090E042E050E062
:10368000A40EB51EA1010E94191CD82ED2188FE7D6
:10369000F82EF122F6FE0BC05EEFF522D91438F4B5
:1036A000F4FE07C0F2FC05C08FEEF82202C01D2D0B
:1036B00001C0192DF4FE0DC0FE01ED0DF11D80813C
:1036C000803319F499EEF92208C01F5FF2FE05C09D
:1036D00003C08F2D867809F01F5F0F2DF3FC14C0F7
:1036E000F0FE0FC01E1510F09D2C0BC09D2C9E0CE3
:1036F000911A1E2D06C080E290E0B3010E94ED1BDE
:103700001F5F1E15C0F304C01E1510F4E11A01C09E
:10371000EE2404FF0FC080E390E0B3010E94ED1B94
:1037200002FF1DC001FD03C088E790E00EC088E5E0
:1037300090E00BC0802F867891F001FF02C08BE2F1
:1037400001C080E2F7FC8DE290E0B3010E94ED1B26
:1037500006C080E390E0B3010E94ED1B9A94D91457
:10376000C0F3DA94F101ED0DF11D808190E0B30119
:103770000E94ED1BDD20A9F706C080E290E0B301B6
:103780000E94ED1BEA94EE20C1F743CEF30166815F
:103790007781CB012B96E2E10C944219FC01059054
:1037A000615070400110D8F7809590958E0F9F1F43
:1037B0000895FB01DC0102C001900D924150504080
:1037C000D8F70895FC016150704001900110D8F7BE
:1037D000809590958E0F9F1F08950F931F93CF9301
:1037E000DF938C01EB018B8181FF1BC082FF0DC039
:1037F0002E813F818C819D812817390764F4E881EF
:10380000F9810193F983E88306C0E885F985802F63
:103810000995892B31F48E819F8101969F838E8338
:1038200002C00FEF1FEFC801DF91CF911F910F91E1
:103830000895FA01AA27283051F1203181F1E89446
:103840006F936E7F6E5F7F4F8F4F9F4FAF4FB1E093
:103850003ED0B4E03CD0670F781F891F9A1FA11D8E
:10386000680F791F8A1F911DA11D6A0F711D811D8F
:10387000911DA11D20D009F468943F912AE0269F54
:1038800011243019305D3193DEF6CF010895462FB3
:103890004770405D4193B3E00FD0C9F7F6CF462F94
:1038A0004F70405D4A3318F0495D31FD40524193FD
:1038B00002D0A9F7EACFB4E0A695979587957795BA
:1038C0006795BA95C9F700976105710508959B0141
:1038D000AC010A2E06945795479537952795BA95CA
:1038E000C9F7620F731F841F951FA01D0895F894D8
:0238F000FFCF08
:1038F20057726F6E67206164647265737300475319
:103902004D20496E697469616C697A696E6700411C
:1039120054006E6577206D6573736167650063613E
:103922006C6C206D650063616C6C696E672E2E2E67
:103932000048616E672043616C6C00636C65617264
:10394200206D73670077616974696E6720666F72B4
:10395200206D736700415445300D004F4B00546594
:103962007874204D6F64650041542B434D47463DAA
:10397200310D0045726F72720041542B434D474422
:103982003D25640D0041542B434D4744413D2244A3
:10399200454C20414C4C220D00434D54493A0041C4
:1039A200542B434D47533D222573220D004154446D
:1039B20025733B0D004154480D000D0A0041542B64
:1039C200434D47523D25640D002B434D4752004E57
:1039D2006F206D6573736167650000000000000071
:0239E2000000E3
:00000001FF
